:020000040800F2
:1000000068090020E90700084108000841080008C5
:1000100041080008410800084108000800000000ED
:10002000000000000000000000000000410800087F
:1000300041080008000000004108000841080008CD
:10004000410800084108000841080008410800086C
:10005000410800084108000841080008410800085C
:10006000410800084108000841080008410800084C
:10007000410800084108000841080008410800083C
:10008000410800084108000841080008410800082C
:10009000410800084108000841080008410800081C
:1000A000410800084108000841080008410800080C
:1000B00041080008410800084108000841080008FC
:1000C00041080008410800084108000841080008EC
:1000D00041080008410800084108000841080008DC
:1000E00041080008410800084108000841080008CC
:1000F00041080008410800084108000841080008BC
:1001000041080008410800084108000841080008AB
:10011000410800084108000841080008410800089B
:10012000410800084108000841080008410800088B
:10013000410800084108000841080008410800087B
:10014000410800084108000841080008410800086B
:10015000410800084108000841080008410800085B
:10016000410800084108000841080008410800084B
:10017000410800084108000841080008410800083B
:10018000410800084108000890B5BBB000AFB96055
:100190007B600346FB731346BB8100237B61002316
:1001A000C7F8D430012387F8E730BB68C7F8D030F0
:1001B0007B68C7F8E030D7F8FC30C7F8DC300023A4
:1001C000C7F8D83007F11803184600F07FFDBB8947
:1001D000C02B4CD0B3F5807F00F0B480802B00D0D2
:1001E0001FE10023FB87D7F8D0301B68C7F8CC305D
:1001F000D7F8CC301BBAC7F8C830D7F8C830BB62C4
:10020000D7F8D0300433C7F8D030D7F8D0301B68D7
:10021000C7F8C430D7F8C4301BBAC7F8C030D7F815
:10022000C030FB62D7F8D0300433C7F8D030D7F8ED
:10023000D0301B68C7F8BC30D7F8BC301BBAC7F841
:10024000B830D7F8B8303B63D7F8D0300433C7F8AC
:10025000D030D7F8D0301B68C7F8B430D7F8B430F6
:100260001BBAC7F8B030D7F8B0307B63D9E04FF491
:100270008073FB87D7F8D0301B68C7F8AC30D7F84D
:10028000AC301BBAC7F8A830D7F8A8303B62D7F813
:10029000D0300433C7F8D030D7F8D0301B68C7F857
:1002A000A430D7F8A4301BBAC7F8A030D7F8A030D4
:1002B0007B62D7F8D0300433C7F8D030D7F8D030CD
:1002C0001B68C7F89C30D7F89C301BBAC7F8983029
:1002D000D7F89830BB62D7F8D0300433C7F8D030A5
:1002E000D7F8D0301B68C7F89430D7F894301BBAD1
:1002F000C7F89030D7F89030FB62D7F8D03004338D
:10030000C7F8D030D7F8D0301B68C7F88C30D7F892
:100310008C301BBAC7F88830D7F888303B63D7F8E1
:10032000D0300433C7F8D030D7F8D0301B68C7F8C6
:100330008430D7F884301BBAC7F88030D7F88030C3
:100340007B636EE04FF40073FB87D7F8D0301B68F7
:10035000FB67FB6F1BBABB67BB6FBB61D7F8D030C5
:100360000433C7F8D030D7F8D0301B687B677B6F79
:100370001BBA3B673B6FFB61D7F8D0300433C7F83B
:10038000D030D7F8D0301B68FB66FB6E1BBABB665B
:10039000BB6E3B62D7F8D0300433C7F8D030D7F803
:1003A000D0301B687B667B6E1BBA3B663B6E7B6204
:1003B000D7F8D0300433C7F8D030D7F8D0301B6826
:1003C000FB65FB6D1BBABB65BB6DBB62D7F8D0305C
:1003D0000433C7F8D030D7F8D0301B687B657B6D0D
:1003E0001BBA3B653B6DFB62D7F8D0300433C7F8CE
:1003F000D030D7F8D0301B68FB64FB6C1BBABB64F1
:10040000BB6C3B63D7F8D0300433C7F8D030D7F893
:10041000D0301B687B647B6C1BBA3B643B6C7B639A
:1004200000BFFB7B002B30D100F072FC04233B8724
:1004300038237B870023BB8707F13803184600F079
:10044000C9FB07F11803184600F014FC012000F066
:100450006DFC102000F0A0FC0346C7F8D4307B6987
:1004600001337B617B69B3F5803F03D0D7F8D4308B
:10047000002BEED1D7F8D430002B03D0002387F81F
:10048000E73009E004233B8706E007F1180318462C
:1004900000F0F0FB00233B8720237B878023BB8772
:1004A00007F13803184600F095FB00F031FC0120FD
:1004B00000F03CFC0023C7F8D83077E0D7F8E030F4
:1004C0001B68184600F04EFCD7F8E0300433C7F83C
:1004D000E030D7F8E0301B68184600F043FCD7F84E
:1004E000E0300433C7F8E030D7F8E0301B68184636
:1004F00000F038FCD7F8E0300433C7F8E030D7F824
:10050000E0301B68184600F02DFCD7F8E0300433CB
:10051000C7F8E03000237B61102000F03DFC03466B
:10052000C7F8D4307B6901337B617B69B3F5803FC9
:1005300003D0D7F8D430002BEED1D7F8D430002B2D
:1005400003D0002387F8E7302BE0D7F8DC4000F039
:1005500017FC03462360D7F8DC300433C7F8DC30DF
:10056000D7F8DC4000F00CFC03462360D7F8DC3001
:100570000433C7F8DC30D7F8DC4000F001FC034658
:100580002360D7F8DC300433C7F8DC30D7F8DC4020
:1005900000F0F6FB03462360D7F8DC300433C7F8DD
:1005A000DC30D7F8D8301033C7F8D830D7F8D82097
:1005B000D7F8F8309A4204D297F8E730002B7FF44E
:1005C0007DAF002000F0B2FB97F8E7301846EC371B
:1005D000BD4690BD80B58AB000AF78603960002319
:1005E0007B6200233B620023FB610023BB617B68CD
:1005F0001B8A9BB27B627B6A23F440537B623B681D
:10060000DB881A467B6A13437B627B6A9AB27B68FB
:100610001A827B689B899BB27B627B6A23F4B0530E
:1006200023F00C037B623B689A883B681B89134369
:100630009AB23B685B8913439BB21A467B6A1343A9
:100640007B627B6A9AB27B689A817B689B8A9BB249
:100650007B627B6A23F440737B623B689B891A460A
:100660007B6A13437B627B6A9AB27B689A8207F14A
:100670000803184600F0AAF97B68314A934203D078
:100680007B68304A934202D17B693B6201E03B695F
:100690003B627B689B899BB29BB21BB2002B0CDA3E
:1006A0003A6A13469B0013449A001A443B681B683D
:1006B0005B00B2FBF3F3FB610BE03A6A13469B006D
:1006C00013449A001A443B681B689B00B2FBF3F387
:1006D000FB61FB691C4AA2FB03235B091B017B62D4
:1006E0007B6A1B09642202FB03F3FA69D31ABB611C
:1006F0007B689B899BB29BB21BB2002B0CDABB6957
:10070000DB003233104AA2FB03235B0903F007032B
:100710007A6A13437B620BE0BB691B0132330A4ADE
:10072000A2FB03235B0903F00F037A6A13437B6286
:100730007B6A9AB27B681A812837BD4680BD00BFAC
:1007400000100140001401401F85EB5180B483B0BC
:1007500000AF78600B46FB70FB78002B08D07B68FD
:100760009B899BB243F400539AB27B689A8107E05D
:100770007B689B899BB223F400539AB27B689A8171
:100780000C37BD465DF8047B704700BF80B483B072
:1007900000AF78600B467B807B88C3F308039AB276
:1007A0007B689A800C37BD465DF8047B704700BFBC
:1007B00080B485B000AF78600B467B800023FB736C
:1007C0007B681B889AB27B8813409BB2002B02D0B7
:1007D0000123FB7301E00023FB73FB7B18461437F6
:1007E000BD465DF8047B704780B582B000AF0F4B0B
:1007F0007B600F4B3B6007E03B681A1D3A607A68EC
:10080000111D796012681A603B680A4A9342F3D35B
:1008100009480A494FF000028842B8BF40F8042B4B
:10082000FADB00F099F80837BD4680BD0D110008CD
:1008300000000020E8000020E800002068010020FF
:1008400080B400AFFEE700BF80B586B000AF4FF4C4
:100850008010012100F0A0F90420012100F060F9CE
:100860000820012100F05CF94FF480533B60022323
:100870003B710023BB710023FB7103237B713B465B
:100880001B48194600F0B0FA19480C21082200F064
:1008900039FB04233B6002233B710023BB7100231F
:1008A000FB7103237B713B461248194600F09CFA0A
:1008B00010480221082200F025FB4FF4E133BB6011
:1008C0000023BB820C237B8200233B820023FB811D
:1008D0000023BB8107F1080307481946FFF77AFE9A
:1008E00005480121FFF732FF1837BD4680BD00BF24
:1008F00000080240000C02400050004080B584B067
:1009000000AF786039600023FB600023FB601AE0D1
:1009100000BF10484021FFF74BFF0346002BF8D0E3
:10092000FB683A6813441B789BB278681946FFF756
:100930002DFFFB683A6813441B78002B00D105E0BB
:10094000FB680133FB60FB681D2BE1DD1037BD4602
:1009500080BD00BF0050004080B582B002AF00F003
:1009600019FBFFF771FF1020012100F0F7F8104884
:100970001049FFF7C3FF0E480F49FFF7BFFF4023A1
:1009800000930E4B019301200D494FF405620A4B71
:10099000FFF7FAFB06480B49FFF7B0FF0448074989
:1009A000FFF7ACFF02480849FFF7A8FFFEE700BFCA
:1009B00000500040E01000085800002028010020EE
:1009C00000000020F01000080411000880B489B075
:1009D00000AF78600023BB6100237B610023FB61D3
:1009E00002233B610023FB600223BB60484B9B68F2
:1009F00003F00C03BB61BB69042B07D0082B09D0A3
:100A0000002B3FD17B68434A1A603FE07B68424A33
:100A10001A603BE03E4B5B6803F480039B0DFB6078
:100A20003B4B5B6803F03F03BB60FB68002B0DD0C2
:100A3000394ABB68B2FBF3F2354B596847F6C073CD
:100A40000B409B0903FB02F3FB610CE0314ABB68DE
:100A5000B2FBF3F22E4B596847F6C0730B409B096B
:100A600003FB02F3FB612A4B5B6803F440331B0C6E
:100A700001335B003B61FA693B69B2FBF3F27B68CF
:100A80001A6003E07B68234A1A6000BF204B9B6812
:100A900003F0F003BB61BB691B09BB611F4ABB6963
:100AA00013441B78DBB27B617B681A687B69DA4090
:100AB0007B685A60164B9B6803F4E053BB61BB69CB
:100AC0009B0ABB61154ABB6913441B78DBB27B618F
:100AD0007B685A687B69DA407B689A600C4B9B683C
:100AE00003F46043BB61BB695B0BBB610B4ABB6931
:100AF00013441B78DBB27B617B685A687B69DA4000
:100B00007B68DA602437BD465DF8047B704700BF20
:100B1000003802400024F40040787D01D800002015
:100B200080B483B000AF78600B46FB70FB78002B7D
:100B300006D00949084B1A6B7B6813430B6306E028
:100B40000549054B1A6B7B68DB4313400B630C377D
:100B5000BD465DF8047B70470038024080B483B026
:100B600000AF78600B46FB70FB78002B06D009497C
:100B7000084B5A6B7B6813434B6306E00549054BF2
:100B80005A6B7B68DB4313404B630C37BD465DF803
:100B9000047B70470038024080B483B000AF7860B7
:100BA0000B46FB70FB78002B06D00949084B1A6CEA
:100BB0007B6813430B6406E00549054B1A6C7B68A0
:100BC000DB4313400B640C37BD465DF8047B704774
:100BD0000038024080B483B000AF7860244A244BD0
:100BE0001B6823F0380313602149214B1B687A6886
:100BF000528813430B601E4A1D4B1B6823F0C00331
:100C000013601B491A4B1B687A68928813430B6068
:100C10007B685B88202B0BD07B685B88282B07D0F8
:100C20007B685B88302B03D07B685B88382B0CD1CA
:100C30000F4A0F4B1B6823F4407313600C490C4B95
:100C40001B687A68D28813430B60094A084B1B68FB
:100C500023F0040313600649054B1B687A68128869
:100C600013430B600C37BD465DF8047B704700BF33
:100C70000000065080B483B000AF7860124A7B68F1
:100C80001B681362104A7B685B6853620E4A7B687C
:100C90009B6893620C4A7B68DB68D3620A4A7B6874
:100CA0001B691363084A7B685B695363064A7B6868
:100CB0009B699363044A7B68DB69D3630C37BD4649
:100CC0005DF8047B704700BF0000065080B483B01D
:100CD00000AF78607B6800221A607B6800225A604F
:100CE0007B6800229A607B680022DA607B680022C1
:100CF0001A617B6800225A617B6800229A617B68D6
:100D00000022DA610C37BD465DF8047B704700BFF6
:100D100080B400AF044A044B1B6843F48043136063
:100D2000BD465DF8047B70470000065080B483B078
:100D300000AF0346FB71FB79002B06D0084A084B35
:100D40001B6843F40043136005E0054A044B1B682D
:100D500023F4004313600C37BD465DF8047B7047F5
:100D60000000065080B483B000AF7860034A7B680F
:100D700093600C37BD465DF8047B70470000065059
:100D800080B400AF034BDB681846BD465DF8047BBA
:100D9000704700BF0000065080B485B000AF034626
:100DA000FB710023FB730023BB60FB7903F020037E
:100DB000002B03D00B4B9B69BB6002E0094B5B68C7
:100DC000BB60FA79BB681340002B02D00123FB7390
:100DD00001E00023FB73FB7B18461437BD465DF82A
:100DE000047B70470000065080B487B000AF786085
:100DF000396000237B6100233B610023FB600023FB
:100E00007B6176E07B69012202FA03F33B613B6878
:100E10001A683B691340FB60FA683B699A4265D1E6
:100E20007B681A687B695B00194603238B40DB43B0
:100E30001A407B681A607B681A683B681B79194600
:100E40007B695B0001FA03F31A437B681A603B6815
:100E50001B79012B03D03B681B79022B2ED17B68B9
:100E60009A687B695B00194603238B40DB431A4079
:100E70007B689A607B689A683B685B7919467B69F6
:100E80005B0001FA03F31A437B689A607B685A6837
:100E90007B699BB2194601238B40DB431A407B6878
:100EA0005A607B685B683A68927911467A6992B2B7
:100EB00001FA02F292B21A437B685A607B68DA68E0
:100EC0007B699BB25B00032101FA03F3DB431A4009
:100ED0007B68DA607B68DA683B68DB7919467B6996
:100EE0005B0001FA03F31A437B68DA607B69013324
:100EF0007B617B690F2B85D91C37BD465DF8047B70
:100F0000704700BF80B485B000AF78600B467B802F
:100F100013467B700023FB600023BB607B787A88DC
:100F200002F0070292009340FB607B88DB089BB2D3
:100F300018467B88DB089BB21A467B68083253F858
:100F400022207B8803F007039B0019460F238B4068
:100F5000DB4302EA03017B6800F1080243F8221038
:100F60007B88DB089BB21A467B68083253F8222044
:100F7000FB681343BB607B88DB089BB21A467B6827
:100F80000832B96843F822101437BD465DF8047B77
:100F9000704700BF80B500AF114A114B1B6843F08A
:100FA000010313600E4B00229A600D4A0C4B1B6824
:100FB00023F0847323F480331360094B094A5A6089
:100FC000074A074B1B6823F480231360044B00225D
:100FD000DA6000F00BF8044B4FF000629A6080BDBD
:100FE000003802401030002400ED00E080B483B0EF
:100FF00000AF00237B6000233B60354A344B1B6805
:1010000043F480331360324B1B6803F400333B60BE
:101010007B6801337B603B68002B03D17B68B3F5B1
:10102000A06FF0D12A4B1B6803F40033002B02D0D1
:1010300001233B6001E000233B603B68012B42D170
:10104000234A234B1B6C43F080531364214A214BEA
:101050001B6843F4804313601D4A1D4B9B689360DB
:101060001B4A1B4B9B6843F400439360184A184B80
:101070009B6843F4A0539360154B174A5A60144A77
:10108000134B1B6843F08073136000BF104B1B6849
:1010900003F00073002BF9D0104B40F205621A6088
:1010A0000B4A0B4B9B6823F003039360084A084BE1
:1010B0009B6843F00203936000BF054B9B6803F0FD
:1010C0000C03082BF9D10C37BD465DF8047B704743
:1010D000003802400070004019544007003C0240B4
:1010E000506C61696E20746578743A0A0D000000D6
:1010F000456E6372797074656420646174613A0A44
:0D1100000D000000456E642E2E2E0A0D001D
:10110D002B7E151628AED2A6ABF7158809CF4F3C0E
:10111D008E73B0F7DA0E6452C810F32B809079E518
:10112D0062F8EAD2522C6B7B603DEB1015CA71BE92
:10113D002B73AEF0857D77811F352C073B6108D76A
:10114D002D9810A30914DFF400010203040506070E
:10115D0008090A0B0C0D0E0F6BC1BEE22E409F96B7
:10116D00E93D7E117393172AAE2D8A571E03AC9C51
:10117D009EB76FAC45AF8E5130C81C46A35CE411D1
:10118D00E5FBC1191A0A52EFF69F2445DF4F9B1755
:10119D00AD2B417BE66C37107649ABAC8119B2466D
:1011AD00CEE98E9B12E9197D5086CB9B507219EEBC
:1011BD0095DB113A917678B273BED6B8E3C1743B24
:1011CD007116E69E222295163FF1CAA1681FAC0941
:1011DD00120ECA307586E1A700000000010203045B
:0811ED000102030406070809D2
:0400000508000000EF
:00000001FF
